:10000000800B0020E11B000021480000B51B000010
:10001000B51B0000B51B0000B51B00000000000070
:10002000000000000000000000000000BD180000FB
:10003000B51B00000000000069180000B51B00009F
:100040006D1900006D1900006D1900006D19000098
:100050006D1900006D1900006D1900006D19000088
:100060006D1900006D1900006D1900006D19000078
:100070006D1900006D1900006D1900006D19000068
:100080006D1900006D1900006D1900006D19000058
:100090006D1900006D1900006D1900006D19000048
:1000A0006D1900006D1900006D1900006D19000038
:1000B0006D1900006D1900006D1900006D19000028
:1000C0006D1900006D1900006D1900006D19000018
:0C00D0006D1900006D1900006D19000092
:1000DC0080F0004002E000BF81F0004142001FBFF1
:1000EC005FEA410392EA030F7FEA226C7FEA236CFA
:1000FC006AD04FEA1262D2EB1363C1BFD2184140EF
:10010C0048404140B8BF5B42192B88BF704710F084
:10011C00004F40F4000020F07F4018BF404211F027
:10012C00004F41F4000121F07F4118BF494292EA8F
:10013C00030F3FD0A2F1010241FA03FC10EB0C00BB
:10014C00C3F1200301FA03F100F0004302D5494248
:10015C0060EB4000B0F5000F13D3B0F1807F06D3F5
:10016C0040084FEA310102F10102FE2A51D2B1F1ED
:10017C00004F40EBC25008BF20F0010040EA0300E2
:10018C007047490040EB0000013A28BFB0F5000F62
:10019C00EDD2B0FA80FCACF1080CB2EB0C0200FA18
:1001AC000CF0AABF00EBC25052421843BCBFD04067
:1001BC001843704792F0000F81F4000106BF80F4E1
:1001CC0000000132013BB5E74FEA41037FEA226CA4
:1001DC0018BF7FEA236C21D092EA030F04D092F06F
:1001EC00000F08BF0846704790EA010F1CBF0020A3
:1001FC00704712F07F4F04D1400028BF40F0004000
:10020C00704712F100723CBF00F50000704700F01F
:10021C00004343F0FE4040F4000070477FEA226246
:10022C0016BF08467FEA23630146420206BF5FEA17
:10023C00412390EA010F40F4800070474FF0000317
:10024C0004E000BF10F0004348BF40425FEA000CDE
:10025C0008BF704743F0964301464FF000001CE086
:10026C0050EA010208BF70474FF000030AE000BFDC
:10027C0050EA010208BF704711F0004302D540421A
:10028C0061EB41015FEA010C02BF8446014600208C
:10029C0043F0B64308BFA3F18053A3F50003BCFAA7
:1002AC008CF2083AA3EBC25310DB01FA02FC634454
:1002BC0000FA02FCC2F12002BCF1004F20FA02F25B
:1002CC0043EB020008BF20F00100704702F120024E
:1002DC0001FA02FCC2F1200250EA4C0021FA02F2AF
:1002EC0043EB020008BF20EADC7070474FF0FF0CB4
:1002FC001CEAD0521EBF1CEAD15392EA0C0F93EAAF
:10030C000C0F6FD01A4480EA010C400218BF5FEA50
:10031C0041211ED04FF0006343EA501043EA5111C3
:10032C00A0FB01310CF00040B1F5000F3EBF4900BD
:10033C0041EAD3715B0040EA010062F17F02FD2AC1
:10034C001DD8B3F1004F40EBC25008BF20F00100A4
:10035C00704790F0000F0CF0004C08BF49024CEABB
:10036C00502040EA51207F3AC2BFD2F1FF0340EA4D
:10037C00C250704740F400004FF00003013A5DDCBE
:10038C0012F1190FDCBF00F000407047C2F10002FF
:10039C00410021FA02F1C2F1200200FA02FC5FEAEC
:1003AC00310040F1000053EA4C0308BF20EADC7036
:1003BC00704792F0000F00F0004C02BF400010F4A8
:1003CC00000F013AF9D040EA0C0093F0000F01F055
:1003DC00004C02BF490011F4000F013BF9D041EA77
:1003EC000C018FE70CEAD15392EA0C0F18BF93EA79
:1003FC000C0F0AD030F0004C18BF31F0004CD8D1A3
:10040C0080EA010000F00040704790F0000F17BF29
:10041C0090F0004F084691F0000F91F0004F14D06F
:10042C0092EA0C0F01D142020FD193EA0C0F03D1C7
:10043C004B0218BF084608D180EA010000F00040CA
:10044C0040F0FE4040F40000704740F0FE4040F4A5
:10045C00400070474FF0FF0C1CEAD0521EBF1CEA44
:10046C00D15392EA0C0F93EA0C0F69D0A2EB030262
:10047C0080EA010C49024FEA402037D04FF08053FC
:10048C0043EA111143EA10130CF000408B4238BFC1
:10049C005B0042F17D024FF4000C8B4224BF5B1ACF
:1004AC0040EA0C00B3EB510F24BFA3EB510340EA1D
:1004BC005C00B3EB910F24BFA3EB910340EA9C00CB
:1004CC00B3EBD10F24BFA3EBD10340EADC001B013B
:1004DC0018BF5FEA1C1CE0D1FD2A3FF650AF8B42DF
:1004EC0040EBC25008BF20F0010070470CF0004CEC
:1004FC004CEA50207F32C2BFD2F1FF0340EAC25017
:10050C00704740F400004FF00003013A37E792F0D7
:10051C00000F00F0004C02BF400010F4000F013A35
:10052C00F9D040EA0C0093F0000F01F0004C02BF30
:10053C00490011F4000F013BF9D041EA0C0195E799
:10054C000CEAD15392EA0C0F08D142027FF47DAF32
:10055C0093EA0C0F7FF470AF084676E793EA0C0F22
:10056C0004D14B023FF44CAF08466EE730F0004C20
:10057C0018BF31F0004CCAD130F000427FF45CAFB0
:10058C0031F000437FF43CAF5FE700BF4FF0FF3C1E
:10059C0006E000BF4FF0010C02E000BF4FF0010C71
:1005AC004DF804CD4FEA40024FEA41037FEA226C3A
:1005BC0018BF7FEA236C11D001B052EA530C18BF5C
:1005CC0090EA010F58BFB2EB030088BFC81738BFC1
:1005DC006FEAE17018BF40F0010070477FEA226CAF
:1005EC0002D15FEA402C05D17FEA236CE4D15FEAAB
:1005FC00412CE1D05DF8040B704700BF84460846DF
:10060C006146FFE70FB5FFF7C9FF002848BF10F19F
:10061C00000F0FBD4DF808EDFFF7F4FF0CBF0120E4
:10062C0000205DF808FB00BF4DF808EDFFF7EAFF6E
:10063C0034BF012000205DF808FB00BF4DF808ED29
:10064C00FFF7E0FF94BF012000205DF808FB00BF1E
:10065C004DF808EDFFF7D2FF94BF012000205DF8A4
:10066C0008FB00BF4DF808EDFFF7C8FF34BF0120B1
:10067C0000205DF808FB00BF4FEA4002B2F1FE4FCC
:10068C000FD34FF09E03B3EB12620DD94FEA002348
:10069C0043F0004310F0004F23FA02F018BF404221
:1006AC0070474FF00000704712F1610F01D1420208
:1006BC0005D110F0004008BF6FF0004070474FF0BC
:1006CC000000704753B94AB9002908BF00281CBF65
:1006DC004FF0FF314FF0FF3000F00CB8ADF1080CCB
:1006EC006DE904CE00F008F8DDF804E0DDE9022342
:1006FC0004B07047704700BF2DE9F04F07468C4699
:10070C000846099E15463C461946002B40F0C6800B
:10071C008242B2FA82F746D94FB1C7F1200E24FAC1
:10072C000EFE00FA07F3BD404EEA030CBC404FEA44
:10073C0015481FFA85FEBCFBF8F9220C08FB19C3FF
:10074C0009FB0EFA42EA03439A4528D9EB1809F142
:10075C00FF3004D29A4502D9A9F102002B44A3EB35
:10076C000A03A4B2B3FBF8F208FB123302FB0EFE31
:10077C0044EA0344A64514D92C1902F1FF3303D2E1
:10078C00A64501D9931E2C44A4EB0E0443EA004069
:10079C001EB1FC40002334607360BDE8F08F484606
:1007AC00DDE71346F0E702B9FFDE87BB831A0121B0
:1007BC004FEA154EAAB2B3FBFEFC200C0EFB1C3309
:1007CC000CFB02F840EA0343984563D9EB180CF193
:1007DC00FF3004D2984502D9ACF102002B44A3EBB4
:1007EC000803A4B2B3FBFEFC0EFB1C330CFB02F2A1
:1007FC0044EA0344A2424FD92C190CF1FF3304D222
:10080C00A24202D9ACF102032C44A41ABEE7C7F1F0
:10081C00200C20FA0CF800FA07F324FA0CFCBD406B
:10082C004CEA03024FEA154EABB2B8FBFEFC110CBE
:10083C000EFB1C800CFB03F941EA0040814504FAD5
:10084C0007F423D928180CF1FF3104D2814502D9C1
:10085C00ACF102012844A0EB090092B2B0FBFEFC03
:10086C000EFB1C000CFB03F842EA004398450FD921
:10087C00EB180CF1FF3204D2984502D9ACF102020C
:10088C002B44A3EB080342EA014191E76146E2E7FE
:10089C006246F6E76046A2E76346B6E7834205D9AF
:1008AC000EB1C6E900700021084676E7B3FA83F171
:1008BC0081B9834201D3BA420AD8BC1A60EB030354
:1008CC0001209C46002E68D0C6E9004C002164E74C
:1008DC000846F7E7C1F1200C8B4022FA0CF41C43BC
:1008EC0002FA01F500FA01F327FA0CF220FA0CFBDC
:1008FC004FEA14491343BBFBF9F81FFA84FE09FBBA
:10090C0018BB1A0C08FB0EFA42EA0B42924507FA86
:10091C0001F73ED9A21808F1FF3004D2924502D952
:10092C00A8F102002244A2EB0A029BB2B2FBF9F836
:10093C0009FB182208FB0EFE43EA024296452AD90F
:10094C00A21808F1FF3304D2964502D9A8F102038C
:10095C00224443EA0040A0FB0593A2EB0E029A420C
:10096C00CE46984602D306D14F4504D2B9EB050EBC
:10097C0063EB0408013886B1B7EB0E0362EB080792
:10098C0007FA0CFCCB404CEA0303CF40C6E9003716
:10099C009CE74046C7E74346DBE73146FDE60000EF
:1009AC002DE9F04F93B000AF614D284604F0DBF910
:1009BC00002800F0B8802A69A968136843F4003352
:1009CC00136028460B685B4A112198470028C0F237
:1009DC00AA80594E0FCE07F118040FC40FCE0FC4C6
:1009EC0096E80F0084E80F00C7F80CD0AB684FF402
:1009FC0000315B69284698470028C0F2948004F0C7
:100A0C00A5F807F1180878600C21404603F09CFD0E
:100A1C008CB0C7F808D04FF0000A8CB00646E946F7
:100A2C0054460134A200073222F00702EB46ADEB2C
:100A3C00020D684607F11801021F00EB0A0C51F871
:100A4C0004EB42F804EF9445F9D1214603F07CFD08
:100A5C000246CAF1330020F00700ADEB000D6846EA
:100A6C00C4F10C01A0F1040EA44658F82C304EF839
:100A7C00043F0CF1010CBCF10C0FF6D13A6003F001
:100A8C0063FD3A6801461046FFF728FBBB68014638
:100A9C0043F80A003046FFF71FFB3146FFF7DAFC3C
:100AAC000B2C49F80A000AF1040ADD46B9D10023DF
:100ABC003B61002307F1100221467B61484607F198
:100ACC00140303F00FFD04F041F8796904461B4848
:100ADC0003F077FDD7F810804046FFF7CDFD0646B2
:100AEC00FFF7B0FB01464046FFF7F6FA1449FFF753
:100AFC00FDFBFFF7C1FD31460246124803F061FDD4
:100B0C007B6811491148E41A6143C90B03F059FD84
:100B1C000F4803F056FD4FF40040002103F002FB98
:100B2C00D7F80CD060E74C37BD46BDE8F08F00BF5E
:100B3C000C5000000100060090510000C052000053
:100B4C0000401C46D852000040420F00F9520000F1
:100B5C001A530000014B1B68184700BF000000200F
:100B6C00014B1860704700BF0000002007B50B4612
:100B7C00002102460091034800F0E6F803B05DF84E
:100B8C0004FB00BF610B00002DE9F84FB0F8189082
:100B9C0019F00808044693460DD001290CBF49F002
:100BAC00100949F02009A0F818908BF31188BFF3B5
:100BBC006F8FBDE8F88F09F00709022907D120468D
:100BCC0003F00CFD0028F0D00128238B4ED167696F
:100BDC00218B002F15DA256821F00701C4E9008864
:100BEC0041F0010121830026218B01F0070ACA453F
:100BFC0002D0A368002B5AD10DB9002E71D000235E
:100C0C0056E001F007035A1F012A1ED821F00701F4
:100C1C00062B256889B2C4E900880AD13DB1638BE3
:100C2C002A46126801339BB2002AFAD1638341F041
:100C3C0002012183204603F0D1FC06460028D3D0C4
:100C4C00238B43F020032383CDE7042B0CD121F01D
:100C5C00070189B22183204603F0C0FC0546002819
:100C6C00C1D041F0200121830025BCE7032809D124
:100C7C00226923F00703166843F00603238300253B
:100C8C002F46B1E7042806D1226923F007035668E2
:100C9C0043F00403F2E7052806D1226923F0070389
:100CAC00966843F00503E9E700252E46E8E70123A3
:100CBC0041F0080121838BF31188BFF36F8FFBB9CF
:100CCC0085BB16B11F492046B0474FF02003EFF308
:100CDC00118B83F31288BFF36F8F238B23F00803E0
:100CEC002383238BDA0625D523F0100323830121DC
:100CFC00B4F8189009F0070900297FF45EAF54E7A7
:100D0C00A1680029DCD0D1F80090D1F804B03B46A2
:100D1C0052462046D847B9F1000FD1D04946D9F8F0
:100D2C000090F2E729463B46524620462D6803F0D8
:100D3C0071FCC5E713F020011EBF23F020032383B1
:100D4C000221D5E74D4600002DE9F04F91B08B46BE
:100D5C00029092461C4600259AF8000008B92846D5
:100D6C0063E325280AF1010707D0029B59469847EF
:100D7C000028C0F25A83013512E2182200210AA879
:100D8C0003F074FD9AF80130252B78D00022104620
:100D9C00964694461646394617F8013B2B2B00F025
:100DAC009D8000F29480202B00F09B80232B00F080
:100DBC009B802EB19DF8306046F004068DF83060B3
:100DCC00BCF1000F05D09DF8306046F008068DF898
:100DDC003060BEF1000F05D09DF8306046F0100673
:100DEC008DF8306028B19DF8300040F020008DF86F
:100DFC0030002AB19DF8302042F040028DF83020AE
:100E0C009DF8302002F04400442803D16FF3861281
:100E1C008DF830209DF830202A2B42F080028DF87E
:100E2C0030207BD19DF8312042F001024B1C8DF813
:100E3C0031201A782E2A9DF831200CBF0121002177
:100E4C0061F341028DF8312074D15A782A2A6AD084
:100E5C00013300210A26184610F8012BA2F13007A5
:100E6C00092F40F28E809DF830200E91C2F3400085
:100E7C0040EAD17161F341028DF830205AE00AF159
:100E8C0002078DF833309DF83130D90740F1498194
:100E9C0054F8049BB9F1000F07DA9DF8302042F0AA
:100EAC0004028DF83020C9F100095A0740F1428143
:100EBC0054F8048BB8F1000F80F241819DF8313069
:100ECC006FF341038DF831304FF0FF3837E12D2BA4
:100EDC000CD0302B7FF46DAF01225CE74FF0010C8E
:100EEC0059E74FF0010E56E7012054E7012652E76F
:100EFC000CFB0202303A33461E4616F8010BA0F1E9
:100F0C003007092FF4D9994293D09DF830100D92E7
:100F1C00D20F62F341018DF830108AE70B460022A4
:100F2C004FF00A0CE8E79DF8312042F004028DF8EE
:100F3C00312002331F4617F8012B6C2A41D025D8DB
:100F4C00682A2BD06A2A46D04C2A4CD01F4617F858
:100F5C00012B9DF831308DF83320782A00F2D9809E
:100F6C00572A4DD8412A03D0453A022A00F2D180A3
:100F7C009DF83230042262F302038DF832300123E3
:100F8C009EE006FB01213039034664E7742A26D023
:100F9C007A2ADBD19DF8313006220DE05A78682A86
:100FAC009DF8312006D1012161F3C6028DF8312064
:100FBC009F1CCCE71346022262F3C6038DF8313036
:100FCC00C5E75A786C2A9DF8312001D10421EBE752
:100FDC0013460322F0E79DF831300522ECE79DF82B
:100FEC0031300722E8E7BDF8303023F4F04323F02A
:100FFC00020343F4804343F00203ADF83030A6E71C
:10100C00A2F15801202900F2848001A050F821F0AF
:10101C00E11000001F1100001F1100001F11000043
:10102C001F1100001F1100001F1100001F110000F4
:10103C001F1100007D0F00001F110000E1100000C7
:10104C00A11000007D0F00007D0F00007D0F00003F
:10105C001F110000A11000001F1100001F11000043
:10106C001F1100001F110000E9100000E11000002A
:10107C00051100001F1100001F11000005110000D8
:10108C001F110000E11000001F1100001F110000D3
:10109C00E11000009DF83210012003F0780360F39A
:1010AC000201402B8DF8321002BF9DF8301041F038
:1010BC0001018DF83010632A31D1003B18BF012398
:1010CC009DF83020C2F340010B4363F341028DF8CD
:1010DC003020D8E69DF832100220DEE79DF8322051
:1010EC0003F07803A3F14000032161F302024342B1
:1010FC008DF832204341E3E79DF83220032113F0B1
:10110C00780F61F302028DF8322014BF0123002303
:10111C00D6E79DF8303043F001038DF830300023D2
:10112C00CEE79DF93020002AB4BFDDF834904FF0A3
:10113C00FF39BAE69B077FF5C7AEDDF838809DF81E
:10114C0031100023CDE90D339DF8323003F0070345
:10115C00012BC1F3C30135D1CB1E042B22D8DFE800
:10116C0003F003090921210054F8043BDA17CDE9F7
:10117C000A3206E0073424F00704F4E80223CDE930
:10118C000A239DF8303013F0030659D002983B46E1
:10119C005246594603F01DFB0028C0F24681054417
:1011AC00BA46D9E554F8043B01294FEAE372CDE97C
:1011BC000A3202D19DF92830D8E70229E1D1BDF9D4
:1011CC002830D3E7022B29D1CB1E042B13D8DFE810
:1011DC0003F0030A0A12120022680A920023201D4F
:1011EC000B930446CDE7E01D20F00700F0E8022346
:1011FC00CDE90A23F5E754F8043B0A9301294FF093
:10120C0000030B9305D19DF828300A9300230B9310
:10121C00B7E70229B5D1BDF82830F6E7042B09D180
:10122C00E31D23F0070303F10804D3E90023CDE900
:10123C000A23A6E7032B04BF54F8043B0A93A0E748
:10124C009DF833007828ABD8622822D825283FF4A3
:10125C008CAD5828A4D10DF126030093DDE90A01C9
:10126C0004AB0CAA03F06FFA8246B8F1000F0DF133
:10127C0026000CDB9DF83020A0EB0A036FF38612DE
:10128C0098458DF8302002D9A8EB03030D938046C6
:10129C003EE06338152883D801A252F820F000BF35
:1012AC002D13000091130000AD110000AD110000D2
:1012BC00AD110000AD11000091130000AD11000044
:1012CC00AD110000AD110000AD110000EB130000DA
:1012DC00B9130000BD130000AD110000AD110000EA
:1012EC0005130000AD110000B9130000AD11000092
:1012FC00AD110000B9130000B8F1000FDDF828A003
:10130C000ADB4146504603F09DFA0AEB0008002622
:10131C00BAF1000F0CD143E7504603F08CFAF4E716
:10132C000A9B8DF8103000260DF1100A0DF11108F2
:10133C00A8EB0A0306B101339DF83220D00668D51C
:10134C00023352060D9948BF0E9A0B4448BF9B18A6
:10135C00B9F1000F76DD9DF83020A9EB0309C2F33B
:10136C008003039353076DD4500661D546B1029B9D
:10137C00594630469847002857DB039B01351E46DB
:10138C00302356E01E070FD413F0100618BF20268A
:10139C00DDE90A23002BBFF65EAF524263EB430339
:1013AC00CDE90A232D2656E72B26F1E7002652E736
:1013BC000A9840B30DF1260300930CAA04AB00214C
:1013CC0003F0C1F9BDF8323003F0EF0343F4F043FE
:1013DC0043F010038246ADF83230002645E70A9BF5
:1013EC0007293FF6DDAEDFE801F00C04060C080817
:1013FC000C0C1D70D4E61D80D2E6EA17C3E900522E
:10140C00CEE61D60CCE6DFF8C8A006460AF105085A
:10141C008EE7110748BF013393E7184603935946EB
:10142C00029B98470028039B04DA11B0BDE8F08FAB
:10143C0020234D444A46002AA5EB090109F1FF3946
:10144C00EBDC0D4636B1029B5946304698470028D6
:10145C00EBDB01359DF83230D90601D41A0706D5DD
:10146C00029B5946302098470028DEDB01359DF859
:10147C003230DB0607D59DF83300029B594698475E
:10148C000028D2DB01350D9E2E44731B002B16DC7D
:10149C00029843465246594603F09BF90028C4DB98
:1014AC000544A944A9EB0503002B7FF779AE029BF9
:1014BC005946202098470028B7DB0135F2E7029BFC
:1014CC005946302098470028AFDB0135DDE700BFD7
:1014DC002153000001F0E4BB2DE9F84305464FF021
:1014EC002003EFF3118683F31288BFF36F8F0E4B3B
:1014FC001C689CB10D4FDFF838804FF00C09D4E913
:10150C000132002D08BF13462BB198F8142009FBAB
:10151C0002F2B85C98472468002CF0D186F311884D
:10152C00BFF36F8FBDE8F883C8010020DC010020F9
:10153C002C03002038B51A4B1C7DBFF35B8F04F0D5
:10154C001F0301229A40174B6109D04303EB81031F
:10155C0053E8001F01EA000543E8005CBCF1000FF2
:10156C00F6D1BFF35B8F114213D00F4B0F4D8BB1E4
:10157C000C236343EA18E85C517803F08FF90020E0
:10158C00FFF7AAFF0C235C432A1900232B51C2E955
:10159C00013338BD83F31188BFF36F8FEFE700BFC2
:1015AC002C030020E8010020A9480000DC010020E9
:1015BC002DE9F041334B07461D7D4FF02003EFF32F
:1015CC00118883F31288BFF36F8F0C242E4B2F4E90
:1015DC006C431A19195D002949D007CA06EB040C93
:1015EC008CE8070000221A5588F31188BFF36F8F1F
:1015FC000C236B43F218F05CB8B37B1C0FD0D2F801
:10160C0008C02348234A4FF4004400210023ECFB7C
:10161C000401FFF757F80121381A03F0A2FC02F07D
:10162C0049FB0120FFF758FFBFF35B8F05F01F024A
:10163C0001219140184A6B0902EB830353E8002FF8
:10164C000A4343E800200028F8D1BFF35B8F134B0B
:10165C0033B10C2068433318305C597803F012F91D
:10166C00FFF768FF02F0AEFC0120BDE8F0810146F7
:10167C00284600F015F80028B6D007C8344484E892
:10168C000700B1E72C030020D0010020DC01002072
:10169C003F420F0040420F00E8010020914800003B
:1016AC002DE9F04F85B00E4603A900F041F8039BDD
:1016BC0001931C4BDFF87080D3F800A0441E24B2B9
:1016CC004FF400474FF0000B631C04D10025284653
:1016DC0005B0BDE8F08F019B144A04EB440503EB05
:1016EC008505C44668685946E0FB07C1002360467F
:1016FC00FEF7E8FF8146A8680C4AC4465946E0FB51
:10170C0007C100236046FEF7DDFFBAF1FF3F01D0B1
:10171C00824504D9721CDAD04844B042D7D9013C76
:10172C0024B2D1E7040000203F420F0040420F00DA
:10173C0008B9024B0B600020704700BFC851000075
:10174C00014910220A60704710ED00E072B640406B
:10175C0080F31188BFF36F8FBFF34F8F30BF62B62A
:10176C00BFF36F8F704700BF72B6494081F3118889
:10177C0020BF80F3118862B6704700BF43B2002BC4
:10178C0008DB012200F01F0002FA00F05B09024A9C
:10179C0042F82300704700BF00E100E0054B42090E
:1017AC0000F01F0053F82220012303FA00F0104030
:1017BC00704700BF00E100E043B2002BA8BF03F16B
:1017CC00604301F10101B8BF064B4FEA4111ACBFB8
:1017DC0003F5614300F00F00C9B2B4BF195483F88C
:1017EC000013704714ED00E030BFFFF7FDBF00BFE2
:1017FC000B4A08B50B4B22F07F029A60BFF34F8F58
:10180C00BFF36F8FD3F8882022F47002C3F88820BE
:10181C0002F058F802F006FD00F0D0F902F096F84C
:10182C000000000000ED00E0094A0A4993680968CD
:10183C009967094958674B6843F080534B60002304
:10184C0083F31188BFF36F8F9368986F704700BF55
:10185C002C030020BC52000000ED00E012498A6805
:10186C004FF030001044EFF3098C80E8F01F20207B
:10187C0080F31288BFF36F8F0C4F4FF00066CA696C
:10188C008A603E60506F0023536780F3118804B563
:10189C00104600F02FFABDE8044002F1300090E849
:1018AC00F01F8CF3098870472C03002004ED00E036
:1018BC001EF0040F0CBFEFF30880EFF30980816971
:1018CC0011F8021C0229FFD001B502F09BFF01BDEB
:1018DC0042F8203C009B42F81C3C0A49019B42F810
:1018EC00183C029B42F8143C21F001014FF080732C
:1018FC0042F8043C42F8081C0023203A0265436776
:10190C00704700BF3F470000094A0346906870B11A
:10191C0013F1160F406E05D0A0F140029A4205D883
:10192C00834203D2814228BF0020704700207047B9
:10193C002C03002008B5094B98600D46144600F0A6
:10194C00D9F9204685F30988002163B681F3118803
:10195C00BFF36F8F0022002302F0EBFE2C0300205C
:10196C0001B572B60B4A906900281EBF0021916127
:10197C0003F028FA62B6EFF30580A0F110004FEAED
:10198C00C0000549014409C99847BDE80140034915
:10199C00084700002C0300203C500000AD1900004B
:1019AC00044B9968D869884203D003494FF08052A0
:1019BC000A6070472C03002004ED00E038B51C4B86
:1019CC0014469A6A9A6A9A6A0546900720D5586B0B
:1019DC009A6A12061CD519B19A6A22F080029A6290
:1019EC009A6A9A6A9A6AD20615D49B6A9B0712D491
:1019FC0000200F4B9A6A920642BF5A6A22F4005298
:101A0C005A629A6A42F0FF029A620023237038BD30
:101A1C006FF01500E4E7064B5B681905E8D529461D
:101A2C00FFF772FF0028E3D080F309880220E0E77B
:101A3C0000ED00E00D4B9A6A9A6A9A6A920508D5F5
:101A4C009A6B9A6A120404D518B19A6A22F400426D
:101A5C009A62064B9A6A9A6AD20558BF9A6A9A6A2F
:101A6C00002042F47F429A620870704700ED00E05B
:101A7C00F0B5474B5B688BB00D46C3F308030026EB
:101A8C0086F31188BFF36F8F02F07F41B1F17F4F66
:101A9C0011D102F00C0108290DD0120701D4054612
:101AAC0001260022033B8DF80720032B54D8DFE8D6
:101ABC0003F00455595D3546F3E7354BDC6A14F0F9
:101ACC00020449D1DA6A002A16DBDC6A14F080447D
:101ADC0012D0AA6932F8021C4DF6027291420AD059
:101AEC009A6AD2B20AB30DF1070201212846FFF718
:101AFC0065FF044600E02C689DF807309BB9202256
:101B0C00294602A802F0A7FE099B002E3BD0C3F386
:101B1C00080222B96FEA53236FEA4323099302A9FF
:101B2C00204602F06DFE0BB0F0BD9F6A17F47F47A4
:101B3C0005D00DF107010120FFF77CFFD9E79C6A66
:101B4C0014490C40D8D09A6A9A6A9A6A9A6A9A6A24
:101B5C009A6A9A6A0A439A620024CDE70DF1070249
:101B6C000021C3E70DF107010020E5E7084B9A6A55
:101B7C009A6A9A6A9A6A9A6A9A6A9A6A6FEA0242A4
:101B8C006FEA1242E7E723F4FF7323F00103C5E782
:101B9C0000ED00E00000FFFF024A536943F0100320
:101BAC005361704700ED00E0EFF30880EFF309811B
:101BBC0001B57246FFF75CFF01BD00BF044800236E
:101BCC002021C2180133272B82F80013F9D170475A
:101BDC0000E100E0002080F31488BFF36F8FFFF763
:101BEC0079FC00200D490860BFF34F8F0C4880F33F
:101BFC00088800F02BF8202080F3118809484FF456
:101C0C000461401880F30988EFF314800221084323
:101C1C0080F31488BFF36F8FFFF7EAFD94ED00E0BB
:101C2C00800B0020400D00200749D1F890200023A4
:101C3C00C2F307221846934200D17047C1F898307E
:101C4C00C1F8A0000133F6E700ED00E008B572B66C
:101C5C00002383F31388FFF7E7FF144B4FF0FF3299
:101C6C00C3F88020C3F88420C3F88820C3F88C20E4
:101C7C00C3F89020C3F89420C3F89820C3F89C2094
:101C8C00C3F88021C3F88421C3F88821C3F88C21C0
:101C9C00C3F89021C3F89421C3F89821C3F89C2170
:101CAC0062B6BFF34F8FBFF36F8F08BD00E100E04A
:101CBC00084B9B6883420BD1EFF3058343B1064B72
:101CCC005A6842F080525A605A6A22F400425A62B0
:101CDC0002F048BA2C03002000ED00E0024B034A4E
:101CEC000348012100F06EB8000001200000002024
:101CFC00C8510000426E054B403A1A60044A40211C
:101D0C00C3E901121846012100F066B8EC0100206D
:101D1C0000000B15F0B51F4F00268E4201DB10465C
:101D2C00F0BD44689CB353B104F1FF3C14EA0C0FB2
:101D3C0018D11F2C16D905681CEA050F12D1202CBE
:101D4C000568D0F808C0D2B20FD9B4F1004F0ED844
:101D5C00013CB4FA84F4C4F11F046400072A4CEA71
:101D6C00040406D96FF01502D9E70824F6E73E24DF
:101D7C00F4E725F01F05154345F0100544F0010468
:101D8C00C7F89820C7F89C500132C7F8A04001361C
:101D9C000C30C2E700ED00E0044B0522C3F89420A0
:101DAC00BFF34F8FBFF36F8F704700BF00ED00E0A4
:101DBC00BFF35F8F024B0022C3F89420704700BF23
:101DCC0000ED00E010B5034C01232278FFF7A2FFD1
:101DDC00207010BD6403002008B5094A0023127856
:101DEC00FFF798FF10F1160F02D0064A072800DD06
:101DFC0008BDC2F89800C2F8A0300130F6E700BF69
:101E0C006403002000ED00E014490868082810B5B0
:101E1C0021D8FFF7CDFF124C49680022904201F106
:101E2C000C0105D10F4B1870FFF7B6FF002010BD49
:101E3C00C4F8982051F80C3C23F01F03134343F0D3
:101E4C001003C4F89C3051F8043C43F00103C4F86F
:101E5C00A0300132E2E74FF0FF30E8E7D451000048
:101E6C0000ED00E064030020014B1860704700BFD8
:101E7C00080000204FF02003EFF3118283F3128847
:101E8C00BFF36F8F06490123C1F840354FF08041F5
:101E9C00C1F8783582F31188BFF36F8F002070473B
:101EAC0000E001404FF08043C0B2C3F81C05BFF303
:101EBC004F8F0549054BCA6802F4E0621343CB60AF
:101ECC00BFF34F8F00BFFDE700ED00E00400FA0503
:101EDC0020B1034B800143F001031847704700BF4A
:101EEC00C0510000084B70B5C31A0D4607499B1032
:101EFC00044659430648402202F0F2FC2B460146A8
:101F0C002046BDE87040184708020020B76DDBB6CC
:101F1C00F44F000073B50C4C0C4A4023041B009387
:101F2C000D460B460A49A41061430646094802F0C7
:101F3C0003FD011E05DA30462B4602B0BDE87040A9
:101F4C00184702B070BD00BF08020020B549000060
:101F5C00B76DDBB6F44F0000002270B501210446CA
:101F6C001046FFF729FC0F4801F07AF80E4B984207
:101F7C0015D102F0D3FE26690C49304602F07DFBE8
:101F8C0000280BDB246909490125356404F11C0088
:101F9C0002F073FB002801DBE564002070BD6FF0DC
:101FAC000400FBE7F11F00000000AD0B2052000005
:101FBC0001460C2309484B4370B5C418D4E90E569E
:101FCC0000224033A263184402F077FC2DB1324654
:101FDC002B460348BDE87040184770BD080200202E
:101FEC00F44F000010B1012804D07047034B1B6C58
:101FFC005B0701D1FFF7DCBF704700BF0802002070
:10200C0008B54FF02003EFF3118183F31288BFF36F
:10201C006F8F124A136843F0020013F00103106033
:10202C000CD04FF08042D2F80C34D2F80C2413F0C0
:10203C00010303D00A4802F040FC012381F311880C
:10204C00BFF36F8F23B1BDE808400020FFF7B0BF8E
:10205C00BDE80840012001F013B800BF5802002071
:10206C00480200201FB500220123CDE90223094AB2
:10207C00CDF800D06B46CDF804D002F08EFC0028D1
:10208C0005DB4FF480420023684601F093FD05B058
:10209C005DF804FBCD49000010B5074C23782BB933
:1020AC004FF4A57002F07BFF01232370BDE81040B4
:1020BC00002000F0E5BF00BF65030020094BBFF313
:1020CC005B8F53E8002F22F0020143E80010002838
:1020DC00F7D1BFF35B8FD30702D4012002F02BBEE4
:1020EC00704700BF580200202DE9F0413949BFF379
:1020FC005B8F0746012251E8003F41E80020002891
:10210C00F9D1BFF35B8F33B9334934484B60CB60A3
:10211C008A6002F0C5FA7B1E012B2FD8012F07D144
:10212C004FF08043D3F81C3403F00303012B25D06C
:10213C0002F042FE044618B9294B1B78002B41D102
:10214C004FF02003EFF3118683F31288BFF36F8FE8
:10215C000124DFF890804FF08045D5F81834D5F87D
:10216C001824D2030CD503F00303012B01D0012F4B
:10217C0006D10CB386F31188BFF36F8FBDE8F081E5
:10218C00ACB13046FFF7F0FAD5F81835002BE4D196
:10219C00D5F80421002AE0D0C5F80431D5F8043173
:1021AC000123C5F81835C8F88031AB60D5E700219C
:1021BC00212001F0B7FFE7E74FF080430222C3F87C
:1021CC000423DBE74FF080430222C3F808230646C2
:1021DC00BFE700BF5C020020F801002024020020B1
:1021EC007807002000E100E008B5084B08481860AB
:1021FC0002F0B9FD38B10748FFF736FE0548FEF787
:10220C00AFFC002008BD6FF01200FBE7600200205D
:10221C0024500000252200000A2838B5074D04463A
:10222C0004D1286883680D215B6898472868836807
:10223C00E1B25B689847204638BD00BF60020020C1
:10224C0030B54068047B01F01F05B2F5001F45EA6C
:10225C00441585B04FF0000405D1284601F0CAF9A9
:10226C00002005B030BDB2F5800FCDE9024430D16D
:10227C00B3F1007F0CBF042305238DF8083083686D
:10228C0023FA01F1C90716D4B2F1A07F13D105F0DE
:10229C001F0303F5E0734FF0A04252F82330DB0725
:1022AC0009D40DF107042146284601F00BF9144B13
:1022BC00984219D003940023194602AA284600F02C
:1022CC00D9FF104B984218D10121284601F04EF944
:1022DC00C6E7B3F1C06F05D0B3F1007F0CBF02238A
:1022EC000123CAE70323C8E7204601F039F9054B5F
:1022FC009842DFD06FF00B00B3E76FF01500B0E73A
:10230C000400AD0B0000AD0B10B501F019F904463B
:10231C0068B901F0EDF8084B98420AD107482146FC
:10232C0001F0CAF8224605210620FFF745FA0020E5
:10233C0010BD6FF00400FBE70000AD0B4D23000057
:10234C00430970B510D1094B596869B101250C6866
:10235C00074E85408A682A4002D04B683046984721
:10236C0014B121462468F5E770BD00BF640200205B
:10237C000C5000002DE9F043D0F8048098F80C3094
:10238C0001F01F0685B046EA43160F4630460DF1A4
:10239C000301144601F096F814F4403581460BD134
:1023AC00304601F04FF9434B994503D19DF803009A
:1023BC0001F0D0F8002057E00023194602AA30465D
:1023CC00CDE9023300F056FF3A4B984202D06FF041
:1023DC00150049E0814503D19DF8030001F0BAF8DE
:1023EC00A50354D540F206332340B3F5837F3ED08A
:1023FC000CD8062B15D004D89BB1022BE7D10423A3
:10240C000FE0B3F5807FE2D101230AE040F2022213
:10241C0093422ED0B3F5407F2DD0B3F5007FD6D1AB
:10242C0002238DF8043084F48033C3F30043E006B8
:10243C008DF8053054BFC4F34013032321038DF8EA
:10244C0006301AD5D8F80430012101FA07F7C3F881
:10245C000875002201A9304600F0B6FF154B9842D2
:10246C0014BF6FF01500002005B0BDE8F083072302
:10247C00D7E70523D5E70323D3E7620341BFD8F899
:10248C000430012101FA07F7C3F80C75E1E7E30604
:10249C004FF0000354BFC4F3401403241A4601A99F
:1024AC0030468DF8044000F0E5FE024B984281D096
:1024BC008DE700BF0000AD0B70B54B79012B20D11F
:1024CC008B79032B1DD1CC790CB1012C19D10A7944
:1024DC0012B1022A15D10E220B684568B3F5164FBE
:1024EC002D6862D02BD8B3F5165F61D014D8B3F534
:1024FC00966F5FD008D8B3F5967F5ED0B3F5167F94
:10250C005ED06FF085004FE0B3F5166F5BD0B3F57E
:10251C00965FF6D1364B3CE0B3F5E14F56D007D879
:10252C00B3F5615F54D0B3F5964FEAD1314B30E03F
:10253C0047F61226B342E4D14FF4000329E0B3F579
:10254C00613F47D013D8B3F5963F46D009D84DF626
:10255C00C026B34243D0B3F5614FD2D14FF46B03D5
:10256C0017E0B3F5E13FCCD14FF0EB7311E0B3F5CD
:10257C00612F37D008D8204EB34236D0B3F5E12FB7
:10258C00BFD14FF0E86304E01C4EB342B9D14FF019
:10259C0080530069C5F82435031D03C92243C5F8CF
:1025AC006C2583E80300002070BD4FF41D03F0E799
:1025BC00134BEEE74FF49E23EBE74FF4A033E8E721
:1025CC004FF41C33E5E74FF41D23E2E70D4BE0E736
:1025DC000D4BDEE74FF06C73DBE70C4BD9E74FF498
:1025EC006503D6E74FF07063D3E74FF08063D0E715
:1025FC0000B0130000A04E0090D0030040420F002A
:10260C000050270000C0750000F03A0000903A011D
:10261C002DE9F7430746002201210220FFF7CCF8F1
:10262C000220FFF7ABF8D7F804803E69D8F80040D9
:10263C00D8F80C900021C4F8001501AA3760484660
:10264C0002F088FA051E55DB019BD9F80020197998
:10265C00186802F0C0FA051E4CDB311D3846FFF736
:10266C002BFF0546002845D1D8F80430990719D519
:10267C0006F1180001F0B0F8224B98423ED1307EA2
:10268C00C30003F1804303F5F83304F10C0204F5A5
:10269C009071C3F81015C3F814251B4A012383400D
:1026AC00C2F804350823C4F8003598F8083053B93B
:1026BC00C4F81031D4F810317369C4F834350123DF
:1026CC00C4F838352360D8F804309A075CBF4FF44F
:1026DC008072C4F80423DB0644BF4FF48003C4F8B3
:1026EC0004333369C4F844350023C4F84835012356
:1026FC00A360E360284603B0BDE8F0836FF00405E7
:10270C00F8E700BF0000AD0B00F00140F8B5076919
:10271C0004460D4602F050FB10B92D4B1B788BB9BB
:10272C004FF02003EFF3118683F31288BFF36F8F02
:10273C006068314602F0C0F930BB86F31188BFF3F4
:10274C006F8FEDE76426606802F0B6F970B901206E
:10275C0002F0E2FA013EF6D10021212001F0E2FC68
:10276C00F0E786F31188BFF36F8FF5E74FF0200386
:10277C00EFF3118683F31288BFF36F8F60683146D5
:10278C0002F09AF90028ECD03B691D706268386938
:10279C001368C3F844050120C3F848050020C3F8AA
:1027AC002001D3F82041C3F858015268D3F85801DE
:1027BC00D20641BF0822C3F800254FF48002C3F8AB
:1027CC00042301229A6081F31188BFF36F8FF8BD47
:1027DC007807002010B501238340114ABFF35B8FAB
:1027EC00DC4352E8001F01EA040C42E800CEBEF1C3
:1027FC00000FF6D1BFF35B8F4FF4803202FA00F07A
:10280C0002F1804202F58052C2F80803BFF35F8FD9
:10281C00BFF36F8F0B4214BF0120002010BD00BF0F
:10282C00740200201949F8B5044622F07F45086867
:10283C00C1E90023A5F50013101AB3F5400F22D2FD
:10284C00134B1B681A0A1B065E19124B42F1000748
:10285C00C3E90067012601F0C3FDA30003F1804327
:10286C0003F58833D3F84025AA420BD11EB94FF497
:10287C000002C3F84025084B4FF4803000FA04F4F2
:10288C00C3F84443F8BD0026E5E700BFB8000020BC
:10289C0078020020A00000200010014019B3BFF303
:1028AC005B8F0123104A834052E8001F194342E812
:1028BC00001CBCF1000FF7D1BFF35B8F0B4A4FF438
:1028CC0080338340C2F80433094BBFF35B8F1B6822
:1028DC00BFF35B8F23FA00F0C30742BF054B4FF4E5
:1028EC000032C3F800217047740200200010014030
:1028FC007002002000E100E00D4B1868010A000690
:10290C00BFF35F8F0B4BD3F80435181841F100015E
:10291C00B3F5801F0AD2084BD3E90023904271EB28
:10292C00030303D210F1807041F10001704700BF26
:10293C007802002000100140A00000202DE9F04F8B
:10294C0085B0164698460546FFF744FF0090FFF702
:10295C00D3FFB04271EB080378D2464B301A68EBC8
:10296C000101984271F1000380F08180424B03EB2E
:10297C000513D3E902ABD84508BF564551D04FEAF1
:10298C00850909F1804905F1500709F58839BF001F
:10299C004FF4803101FA05F3BFB226F07F4207F104
:1029AC0080470193D9F84005344B07F58837144616
:1029BC00D3F80415401A20F07F4021F07F4C0128F9
:1029CC00C9F840C507D1CDE90221132002F0E7FA7E
:1029DC00DDE90221294B01F1020CA4EB0C0020F0E3
:1029EC007F40B0F5000F88BF64460020386038681F
:1029FC000198C3F8440324F07F40C9F84005D3F88C
:102A0C000405814206D0201A023820F07F40B0F530
:102A1C00000F19D8A41A24F07F4414EB060A48F1CD
:102A2C00000B15490E982B0101EB0512C2E902AB04
:102A3C00C8500F9B5360002428460099FFF72EFFC7
:102A4C00204605B0BDE8F08F2046B1E701230C4AC3
:102A5C00BFF35B8FAB4052E8001F194342E80010F4
:102A6C000028F8D1BFF35B8FB246C346D9E76FF0AD
:102A7C001504E1E701000001A8000020001001404E
:102A8C007002002073B5194B194D00244FF0FF3024
:102A9C004FF0FF31C5F80845C3E902014FF480330C
:102AAC00C5F80433134B02264FF400320121C5F84C
:102ABC0004631120C3F880212246FEF77DFE11200D
:102ACC00FEF75CFE0C4A0123AB602B6013600B4BD2
:102ADC000B4A0093019400232046FFF72FFF30464A
:102AEC00FFF702FB204602B070BD00BFA80000201B
:102AFC000010014000E100E07402002031280000C9
:102B0C00FFFF7F002DE9F743354CD4F804339A07C7
:102B1C000BD5D4F8043143B1324A0023C4F8043144
:102B2C00D4F804311368013313604FF02003EFF332
:102B3C00118283F31288BFF36F8FD4F80433DB0355
:102B4C0012D5BFF35B8F284B53E8001F21F0010017
:102B5C0043E80006002EF7D1BFF35B8F002936D176
:102B6C00D4F84031002B32D1002382F31188BFF30B
:102B7C006F8F4BB3FFF7C0FE4FF02003EFF3118CB8
:102B8C0083F31288BFF36F8F184BD3E90267B042FF
:102B9C0071EB07024FF0000220D34FF0FF384FF0DB
:102BAC00FF39D3E90015C3E902891A604FF4803369
:102BBC00C4F848338CF31188BFF36F8F21B10095A3
:102BCC0032463B460020884703B0BDE8F083002323
:102BDC00C4F84031D4F840310123C6E71146E9E787
:102BEC00001001407802002070020020A800002094
:102BFC00431C13B521D0012821DDB0F5000F20DADC
:102C0C00441EFFF779FE104BD3E90013401AB0F5C0
:102C1C00000F28BF0024013002190C48824228BF43
:102C2C00024652184FF0000009490190009143F1FF
:102C3C000003FFF783FE02B010BD0448E0E7002458
:102C4C00DFE7024CDDE700BFB8000020FFFF7F008C
:102C5C003128000008B5FFF74FFE024B1B68C01A65
:102C6C0008BD00BFB80000204FF0704393F8E02F70
:102C7C00062A09D1D3F8E83FC3F30313033B042B13
:102C8C0002D8024AD05C7047002070477053000095
:102C9C00024AD2F80034002BFBD0704700E0014010
:102CAC0010B502F02AF840B14FF08053904AD3F897
:102CBC002433C3F30423C2F84035FFF7D5FF10B11A
:102CCC008C4B8D4A5A6702F018F848B14FF080537C
:102CDC004FF08042D3F84432C3F34233C2F83C3550
:102CEC00FFF7C2FF30B1854AD2F8FC3023F0807375
:102CFC00C2F8FC3002F001F840B14FF080430022E2
:102D0C00C3F80C21C3F81021C3F83825FFF7ACFF2A
:102D1C0020B14FF080430322C3F8A025FFF7A4FF96
:102D2C0060B1774B0522C3F810260122C3F8882620
:102D3C000022C3F818263F22C3F814264FF0805304
:102D4C00D3F83021511C09BF4FF07043D3F8343104
:102D5C0093F8E02FD3F8E83F08BFC3F30313062A18
:102D6C004DD1033B042B03D8664AD35C002B46D0D1
:102D7C004FF08052644BD2F80414C3F82015D2F8EB
:102D8C000814C3F82415D2F80C14C3F82815D2F87B
:102D9C001014C3F82C15D2F81414C3F83015D2F84B
:102DAC001814C3F83415D2F81C14C3F84015D2F813
:102DBC002014C3F84415D2F82414C3F84815D2F8DB
:102DCC002814C3F84C15D2F82C14C3F85015D2F8AB
:102DDC003014C3F85415D2F83414C3F86015D2F873
:102DEC003814C3F86415D2F83C14C3F86815D2F83B
:102DFC004014C3F86C15D2F84424C3F8702501F0C4
:102E0C007CFF48B14FF080534FF08042D3F85832DA
:102E1C0003F04F03C2F8E43E01F06FFF48B14FF0EE
:102E2C008043D3F80024D20744BF6FF00102C3F8EB
:102E3C0000244FF08053D3F83021062A26D1D3F842
:102E4C003431033B042B02D8304AD35C63B1304A93
:102E5C00D2F83C3743F48063C2F83C374FF08053D0
:102E6C00D3F83031062B11D14FF08053D3F83431D5
:102E7C00033B042B02D8274AD35C3BB14FF0102301
:102E8C00D3F808224FF08043C3F858254FF0102395
:102E9C00D3F80022002A03DBD3F80432002B22DA09
:102EAC001D4901234FF01020C1F804351524FFF7FC
:102EBC00EFFEC0F80042FFF7EBFEC0F80442FFF74C
:102ECC00E7FE0023C1F80435FFF7E2FEBFF34F8F96
:102EDC000A49124BCA6802F4E0621343CB60BFF399
:102EEC004F8F00BFFDE70E4B0E4A1A6010BD00BF9E
:102EFC000030014000C007400DF0ADBA00ED00E01D
:102F0C00005000406153000000C0004066530000B8
:102F1C00001000406B53000000E001400400FA0573
:102F2C00280000200090D00370B501250268B2FA89
:102F3C0082F3C3F11F035E1CDCB214D0BFF35B8FB2
:102F4C0005FA03F322EA030350E8006F964204D11A
:102F5C0040E8003CBCF1000FF6D1BFF35B8FE5D12C
:102F6C0002480C7070BD0248FCE700BF0000AD0BBE
:102F7C000200AD0B0368CB40DB0710B515D4012361
:102F8C0003FA01F10368BFF35B8F41EA030250E8D7
:102F9C00004F9C4204D140E8002CBCF1000FF6D14C
:102FAC00BFF35B8FEED1024810BD0248FCE700BFB7
:102FBC000000AD0B0400AD0BF7B5044618B10128A9
:102FCC0029D003B0F0BD4FF080430222C3F8082390
:102FDC00C3F80401D3F804210122DA6001239C42D6
:102FEC008DF8073014BF00250DF1070542F210775C
:102FFC004FF08046D4B1012CE3D125B1D6F80C3476
:10300C0003F001032B70D6F80C34DB0318D4134BEC
:10301C0000225A71D5E74FF080430022C3F8080311
:10302C00C3F80021D3F800215860D7E725B1D6F8B2
:10303C00183403F003032B60D6F81834DA03C0D528
:10304C002DB9012001F068FE013FD3D103E09DF8BA
:10305C000730012BF5D0012CD9D0B2E77C0200202F
:10306C00044B1A7922B9012218609A8002487047E1
:10307C00024870477C0200200000AD0B0C00AD0B29
:10308C0038B510B1012844D038BD4FF08042D2F889
:10309C001814D2F8183413F480330BD1D2F814145A
:1030AC00C90710D5D2F81C349B0708D40223C2F8E8
:1030BC000433E9E701F00303012B04D01BB100201A
:1030CC00FFF77AFF00234FF08042C2F81835002337
:1030DC00C2F80431D2F804310223C2F80433124A84
:1030EC00D2F8FC0040F08073C2F8FC300F4B1C6827
:1030FC0044F0010119605D685968491BB1F50A5F1C
:10310C00FAD31C604FF08043C2F8FC0001229A6095
:10311C00BAE74FF080430022C3F80021D3F8002116
:10312C00C3F804031860AFE700ED00E0001000E006
:10313C004FF0804310B5D3F800216AB10022C3F8D8
:10314C000021D3F800210122C3F80823114B587930
:10315C0010B95A711B6898474FF08043D3F804217B
:10316C0072B10022C3F80421D3F80421D3F8182437
:10317C00D3F81814920704D10122C3F818259A60C9
:10318C0010BD0222C3F80823024BBDE810401B6897
:10319C00012018477C020020034B083033F8100044
:1031AC00C0F34010704700BF2C00002070B500F138
:1031BC0008030C4C34F81330DA0505460E4607D5D7
:1031CC00C3F3432304EBC30254F8333052689847DB
:1031DC00A3682BB1E26831462846BDE87040184719
:1031EC0070BD00BF2C000020124A083010B432F819
:1031FC001030D9051BD5C3F3432123F4F85322F81F
:10320C00103002F11004002034F8023B13F4807FDC
:10321C0003D0C3F34323994209D001302028F3D1C2
:10322C00002342F83130044810BCFFF7A3BE10BC99
:10323C00704700BF2C0000208000002038B50246EB
:10324C00FFF7AAFF094C02F1080540B134F815301C
:10325C0007495B0B03F5A273002041F823001046CD
:10326C00FFF7C2FF002324F8153038BD2C000020D6
:10327C00006000402DE9F34104461E4609B34D4F52
:10328C0000F1080837F81850AB0706D5FFF784FF94
:10329C0018B1494802B0BDE8F08104F01F0080006D
:1032AC0000F1A0400978D0F8003725F0020523F092
:1032BC000F0345F0010543EA810327F81850C0F8C5
:1032CC00003792B13B4B1578526804F1080033F883
:1032DC0010108F070CD5002ADBD133F8102022F008
:1032EC001C0242EA850223F81020CEBB3348D1E7FA
:1032FC0021F02001C904C90C23F81010002AECD0CD
:10330C00032DC6D817782DB92D4A07F5A27142F8AE
:10331C002150E2E7BA0002F1804202F5C04241EAD4
:10332C004731D2F810C52CF0030CC2F810C5D2F8F6
:10333C0010C52CF4473C2CF4407CC2F810C5D2F8D4
:10334C0010E54FEA042C0CF4F85C4EEA054E4CEAFE
:10335C000E0C41F0200123F81010C2F810C5BCE788
:10336C00D6E900762046FFF73FFF002FBED0114D67
:10337C002B689F4204D16B689E4201D1002209E068
:10338C0010480DF10701FFF7CFFD0C4B984281D18E
:10339C009DF8072045F8327005EBC20308345E60D7
:1033AC0035F8143043EA422343F4807325F8143083
:1033BC009CE700BF2C0000200400AD0B0000AD0BFF
:1033CC000060004080000020F8B5044671B3374E11
:1033DC0000F1080736F81750AB0704D4FFF7DCFEF2
:1033EC0008B13348F8BD15F01C0F4B7801D0012BF8
:1033FC00F7D004F01F00800000F1A04091F800E02D
:10340C00D0F800C789785B002CF4E16C43EA0E23FA
:10341C002CF0070C43EA0C0343EA810345F0030547
:10342C0043F0010326F81750C0F800370AB92148B9
:10343C00D8E71E4E04F1080736F817008307D0D5DD
:10344C0092F800C06146890020F0200001F1804113
:10345C00C00401F5C041C00C26F817000023C1F8C8
:10346C0010355578002DE2D0D1F81035927823F430
:10347C00981323F4F853C1F81035D1F810E5230252
:10348C0003F4F8532D0443EA0E0305F440351205FA
:10349C002B4302F4801240EA4C30134340F02000DE
:1034AC0026F81700C1F81035C1E700BF2C0000202A
:1034BC000400AD0B0000AD0B014BC3E902017047DA
:1034CC002C00002008B50246FFF766FE38B1054B0C
:1034DC000548083233F812305B0B0B7008BD0348FB
:1034EC00FCE700BF2C0000200000AD0B0400AD0B6E
:1034FC0038B50F4C94F85850BDB94022294604F108
:10350C00100001F0B3F90620FEF738F9094B0A4810
:10351C00C3F87C51D3F87C214FF00042C3F804234C
:10352C00012384F85830636538BD0448FCE700BFBC
:10353C002C000020006000400000AD0B0500AD0B1E
:10354C00034B93F85800003818BF0120704700BF98
:10355C002C00002001460148FFF70CBD7C00002028
:10356C0001460148FFF7E0BC7C00002010B5024684
:10357C00FFF712FE02F108041C4B33F81430E0B1D3
:10358C0013F0020419D15B0B9A0002F1804000F594
:10359C00C24002F1804202F5C04204600068D2F8D9
:1035AC00100540F00100C2F8100529B1012202FA01
:1035BC0003F30F4AC2F8043310BDC3F38203042B88
:1035CC0010D0052B10D04FF0A043D3F8101502F0FB
:1035DC001F03D94001F001010231BDE81040104633
:1035EC0001F0ABBB0321F8E70221F6E72C00002029
:1035FC000060004008B50246FFF7CEFDC0B102F1F5
:10360C0008010E4B33F81130990711D45B0B0122D2
:10361C009A409B000A4903F1804303F5C043C1F86B
:10362C000823D3F8102522F00302C3F8102508BD97
:10363C00BDE808400021104601F07FBB2C000020A3
:10364C00006000400D4B00F1080210B533F8123049
:10365C00DB0704460FD5FFF7CDFF204604F01F040F
:10366C00FFF7ECFD04F5E0744FF0A043022243F8A1
:10367C002420034810BD0348FCE700BF2C000020A9
:10368C000000AD0B0400AD0B2DE9F74F4E4B4F482E
:10369C004F49002501222C461E6836B1D0F8046330
:1036AC0016421EBF1C601E68154304338B424FEA42
:1036BC004202F1D1454BD3F87C31BBB14FF0A0465F
:1036CC00D6F820350193C6F8203501AF4FF001082C
:1036DC00019C6CB93D4BC3F87C41D3F87C31D6F8D6
:1036EC0020350193C6F82035002BEED1012466E07D
:1036FC0094FAA4F4B4FA84F4364A04F10803E0080A
:10370C0032F8131004F0070308FA03F23B5C23EAC7
:10371C0002033B54A30003F1A049C1F3820AD9F878
:10372C000027CB06D346C2F3014218D55946204692
:10373C005FFA82FAFFF73AFDD9F80037C3F3014379
:10374C009A4507D10021204601F0F7FA5146204650
:10375C0001F0F3FA08FA04F4C6F82045B8E7022A97
:10376C000CBF03210221204601F0E7FABAF1030F46
:10377C0004D0022A07D1BAF1010FEBD159462046E9
:10378C00FFF714FDE6E7032AE4D1BAF1020FF4E7E0
:10379C0095FAA5F3B3FA83F304FA03F29B0003F151
:1037AC00804303F5C04325EA0205D3F81005D3F88E
:1037BC001015C0F30420C1F30141FFF7F7FC002DF5
:1037CC00E6D103B0BDE8F08F00610040006000401E
:1037DC00206100402C00002001460148FFF7A4BBEB
:1037EC008800002010B5144C144A1549032323619A
:1037FC006361144BA261E3614FF480632362002385
:10380C00A3626362E36222660F4A6266E01D1022C5
:10381C00A2662367E366636701F003F8BFF35F8F6B
:10382C000A49204600F0FDFFBFF35F8F2023A371F0
:10383C00BFF35F8F10BD00BF8402002075530000E2
:10384C007E530000780300206803002082530000A0
:10385C000E4B70B553F82040013053F82060A6424F
:10386C0000D870BDD4E900352846984765B1EB689F
:10387C0030B10028B8BF4042FF28A8BFFF20187005
:10388C005A7842F001025A700834E8E7A852000056
:10389C0008B50A4B012202201A70FFF7D9FF00F07D
:1038AC0015FE0320FFF7D4FF00F0ECF8FDF778F8D5
:1038BC00034A137B23F00103137308BD7807002020
:1038CC004001002008B50348034A0021121A01F0F8
:1038DC006FFA08BDA00000207C07002070B5002303
:1038EC0086B00122CDE90423134E144D01930F220F
:1038FC00CDE902321249182303FB005506EBC01622
:10390C0004464FF4C07000FB04110E4B00954FF4AD
:10391C00A072304600F084F8737B0B482C7523F0B2
:10392C00040373734FF4046303FB04041C44EE6040
:10393C006C6006B070BD00BFC00000202C030020DE
:10394C00C00B0020493B0000400D002080B52D4BE2
:10395C00A6B083F308882C4D2C4E6B692C4F43F486
:10396C00007300246B61E02385F82230EC772C7611
:10397C006C76AC7685F820406B6A43F4E0236B627E
:10398C0085F82340FEF708F9FDF7DAFE4FF0FF3318
:10399C00AB62EB62FEF738FAFEF7A0F940F20113C6
:1039AC00ADF8243006ABB360CDE91F44229401F08E
:1039BC00D9F92046FFF74CFF0120164DFFF748FFC1
:1039CC0000F01CFB144BF561059301231349009483
:1039DC00CDE903434FF480623B46CDE901442846D0
:1039EC0000F01EF86A7B064622F0040228466A7331
:1039FC0001F01DFA2046FFF771FF3A463146284682
:103A0C00FDF798FF8015002000ED00E02C0300204E
:103A1C009D380000400100208953000080070020E1
:103A2C002DE9FF410E9E0673042646730D9E867388
:103A3C0000F158050F46D61DC0E916550C9A002505
:103A4C0026F007064037C0E90655C0E919768560AF
:103A5C00C573C56606F1400802920B9A0192884420
:103A6C000A9A009242460446FDF732FF044B656504
:103A7C009B6803B11B6F2367404604B0BDE8F0811F
:103A8C002C0300202DE9F043294C2A4D87B0264603
:103A9C00AE4204F130040FD300F00CF9244CDFF8E3
:103AAC0098904FF4004640F2E737AC4220D307B071
:103ABC00BDE8F04300F086BA54F8043C059354F882
:103ACC00103C049354F8143C039354F8183C0293A0
:103ADC0054F81C3C019354F8203C009354E90C011D
:103AEC0054E90A23FFF79CFF54F8303C5E65CEE79F
:103AFC00636A5A1C0DD023EAE37300213846C3FBDA
:103B0C00060151EAC333D4F8008004D1404600F0DA
:103B1C00B7F93034C9E74FF47A720023FCF7D2FDC1
:103B2C0002460B4608F11800494600F0DFFBF0E7AF
:103B3C00A0000020A00000205B4E000008B50B4C3C
:103B4C000B4D4FF02002EFF3118382F31288BFF379
:103B5C006F8F01F0F6F92B78A06113B9FDF7F6FD24
:103B6C00EFE7FDF725FD0028EBD1F7E72C0300204C
:103B7C007807002038B504464FF02003EFF3118589
:103B8C0083F31288BFF36F8F01F0ADF948B10022B7
:103B9C00826701F04CF929460548BDE8384000F031
:103BAC0077B8D4E902329A4218BF0133A360F2E726
:103BBC007907002013B54FF02004EFF3118184F343
:103BCC001288BFF36F8F846844B1013C846081F329
:103BDC001188BFF36F8F002002B010BD52EA0304AE
:103BEC0006D181F31188BFF36F8F6FF00F00F3E7ED
:103BFC00CDE900230246024800F09EF9ECE700BF35
:103C0C007907002038B5074D2C6854B1FFF722F81E
:103C1C00054B04441C6128680021BDE8384001F0C4
:103C2C00A0B938BD5C0300202C030020F8B5044675
:103C3C000D464FF02003EFF3118783F31288BFF387
:103C4C006F8F104E00214FF4004C40F2E730316181
:103C5C0000234FF47A72E4FB0C01FCF733FD002CCB
:103C6C00094B0ADC1860094BB0681D60FFF7CAFFEE
:103C7C0087F31188BFF36F8FF8BD0228B8BF0220FD
:103C8C00F0E700BF2C0300205C0300205803002049
:103C9C0049B9EFF3058030B9054BDA699B689A4254
:103CAC0001D0FDF7C1BD81F31188BFF36F8F704751
:103CBC002C0300204FF02003EFF3118183F31288C3
:103CCC00BFF36F8F044B9A68D37B013BD37381F3A3
:103CDC001188BFF36F8F70472C03002038B5024654
:103CEC000C480D4D01F09DF8044600B9EC68AB682A
:103CFC004AB95A7BD20606D1A26922B9DA897F2A3F
:103D0C0001D9EB6138BD9C4202D02046FFF77AFF07
:103D1C00EC61F7E74C0300202C03002070B590F900
:103D2C000D20437B002A014604DA03F07F03437322
:103D3C0001F04FF84B7B154A63F07F034B73D2E9CC
:103D4C00083402F12005AB421BD0D3B191F90E60BF
:103D5C0093F90E0086420FD0801B00280CDD5868AA
:103D6C00C1E90030016059609068431A5842BDE8BF
:103D7C0070405841FFF7B2BFA34202D01B68002B22
:103D8C00E6D1C1E9005421605162EDE72C0300201B
:103D9C0038B54FF02003EFF3118583F31288BFF38E
:103DAC006F8F174B174A9C6811688C4207D12046BD
:103DBC00FFF728FF85F31188BFF36F8F38BD002103
:103DCC001160114A1268C2B1E2897F2A15D8627B50
:103DDC00D20612D10D4A94F90E10126891420CDBE6
:103DEC000B4A944209D01A69824203DC2046FFF741
:103DFC0095FFDCE7121A1A61DCE70022FBE700BF33
:103E0C002C030020540300205C03002058030020E6
:103E1C00C000002070B490F90D20437B002A2ADBEF
:103E2C00DA0628D1826932BB144A63F07F034373EC
:103E3C00D2E9083402F12005AB4217D0B3B190F9A6
:103E4C000E6093F90E108E420BD0891B002908DDF1
:103E5C005A68C0E900321060586070BC0020FFF74F
:103E6C003DBFA34202D01B68002BEAD1C0E900542D
:103E7C0020605062F1E770BC704700BF2C0300203B
:103E8C0010B54FF02002EFF3118482F31288BFF3C8
:103E9C006F8F427B510704D484F31188BFF36F8F6B
:103EAC0010BD22F004024273FFF7B4FF2146024812
:103EBC00BDE81040FFF7ECBE7907002008B590F97B
:103ECC000D20437B002A014604DA03F07F03437381
:103EDC0000F07FFF044B9868431A58425841BDE8E4
:103EEC000840FFF7FBBE00BF2C0300202DE9F0417A
:103EFC00064615461C464FF02003EFF3118783F35B
:103F0C001288BFF36F8F00F0C4FF87F31188BFF3E3
:103F1C006F8FB4F1FF3F08BFB5F1FF3F08D02A46C1
:103F2C00234606F118000349BDE8F04100F0DEB964
:103F3C00BDE8F0815B4E000010B5074B9868074B4D
:103F4C000C4618601146DDE90223FFF7CFFF20462F
:103F5C00BDE81040FDF768BC2C0300205403002082
:103F6C0070B50446183000F0D6FF4FF02003EFF385
:103F7C00118683F31288BFF36F8F94F90D20637B46
:103F8C00002A05DA03F07F036373204600F021FF5B
:103F9C000B4D637BA86843F010036373031B5842FB
:103FAC005841FFF79BFE86F31188BFF36F8FAB6808
:103FBC00A34203D1BDE8704000F029BF70BD00BF23
:103FCC002C03002010B54FF02003EFF3118483F382
:103FDC001288BFF36F8F084B9A68D37B0133D3736E
:103FEC000020FFF77BFE84F31188BFF36F8FBDE8D1
:103FFC00104000F00CBF00BF2C030020044B00212C
:10400C0003F12002C3E908220846FFF70FBE00BFE8
:10401C002C030020F8B54FF02003EFF3118583F348
:10402C001288BFF36F8F1A498868437B03F07F03B4
:10403C00437300F0CEFE8B685A7B084662F07F0219
:10404C005A7350F8202F82421CD0DAB14F6A93F980
:10405C000E6092F90E40A6420FD0A41B002C0CDD72
:10406C005168C3E900210B6053600120FFF736FE55
:10407C002846BDE8F840FDF7D7BBBA4202D012681B
:10408C00002AE6D14A6AC3E9000213604B62ECE7EE
:10409C002C03002050EA01032DE9F04105460E46A1
:1040AC0003D1FFF7B7FF002033E06FF00104241AAF
:1040BC004FF0FF3363EB0103012C73F1000302DAC1
:1040CC0000F069FF44194FF02003EFF3118883F3DC
:1040DC001288BFF36F8F104F104BB8681860FFF742
:1040EC00EDFEB8680E492A463346183000F0FEF84B
:1040FC00BA68537B43F0100353734046FDF794FBAF
:10410C0000F049FF201A63EB0303012873F100034D
:10411C00C9DBBDE8F08100BF2C0300205403002054
:10412C005B4E0000B1F1FF3F08BFB0F1FF3F08B597
:10413C0006D1084B9868FFF713FF4FF0FF3008BD0E
:10414C00FFF7A8FF4FF47A7380FB0303C00B40EA20
:10415C004340F4E72C030020014B9868704700BFE4
:10416C002C0300202DE9F04104464FF02003EFF31F
:10417C00118683F31288BFF36F8F037BD9070BD59E
:10418C0086F31188BFF36F8F404080F311884FF096
:10419C00040002DFBDE8F081437B1A0704D586F3E7
:1041AC001188BFF36F8FF5E723F0200242F008016E
:1041BC00D20920D14173A36813B1204600F011FE3F
:1041CC0004F1180000F0A7FE04F158074FF00008A6
:1041DC00A56DBD4200D0B5B90120FFF77FFD104B96
:1041EC009B68A342DBD1EFF30583002BD7D130467C
:1041FC00FDF71AFBD3E703F05F0343F008034373A7
:10420C0000F0E7FDD7E7284600F0EBFD05F11800BC
:10421C0000F081FEC5F878802846FFF7FBFDD7E754
:10422C002C03002008B50648064A0749121A00F06C
:10423C00C1FDBDE80840054A0549064800F0BABD75
:10424C0000000020A0000020C4530000000000006B
:10425C00C453000000000020034B1B680BB9FEF791
:10426C00F9BC0020704700BF60030020104B10B554
:10427C001C689C4208BF0024FFF7EEFFA4B1D4E9F0
:10428C0004321B1A62EBE070B3F1004F70F10002C4
:10429C000ADA0028ACBF18460020064B1B6913B184
:1042AC009842A8BF184610BD6FF00040F5E700BF5C
:1042BC008C0000202C03002030B5036868B10A4A3A
:1042CC005268904209D043B1D3E90421D0E90445A6
:1042DC00121941EB0501C3E90421426813605A60CD
:1042EC000023C0E9003330BD8C000020B3F1FF3F48
:1042FC0008BFB2F1FF3FF8B504461F46154667D01C
:10430C0081604FF02003EFF3118683F31288BFF323
:10431C006F8F6FF00102531B4FF0FF3C6CEB0703E8
:10432C00002B1BDB2B4BD3E90013521A6CEB030352
:10433C00551B63EB0703012D73F10002BCBF012574
:10434C000023C0E904532448D0E9003C834218D12F
:10435C00C4E9000CCCF80040446026E0FFF77CFF79
:10436C00013547F100072D1847EBE077C4E90457F6
:10437C00E9E7521A65EB07059C45C4E90425E7D02B
:10438C001B68002BE4D0D3E90417D4E904258A4236
:10439C0075EB070EEDDA8A1A67EB0505C3E9042500
:1043AC005A68C4E9003214605C60036883420BD025
:1043BC009C4209D1FFF75AFF18B1084B1B69834285
:1043CC0002D00021FEF714FC86F31188BFF36F8F27
:1043DC00F8BD00BFC00100208C0000202C03002081
:1043EC002DE9F8430446FFF7D3FC4FF02003EFF31D
:1043FC00118583F31288BFF36F8F244FDFF8908001
:10440C00244E3C60D8F800003B684045D6E9002EAD
:10441C004FEAE3710BD050B1D0E9044CA34271EBDD
:10442C000C0916DAE41A6CEB010CC0E9044C9B186D
:10443C004EEB01010024C6E900313C60FFF716FF8A
:10444C002146FEF7D5FB85F31188BFF36F8FBDE8CE
:10445C00F883A2184EEBE471C6E900210023002278
:10446C00C0E90423FFF728FF85F31188BFF36F8F92
:10447C00836898474FF02003EFF3118583F312887C
:10448C00BFF36F8F3B681B1B3B60BBE760030020D7
:10449C008C000020C001002010B54FF02003EFF37A
:1044AC00118483F31288BFF36F8FFFF7D5FE064B91
:1044BC000146D3E90003081843EBE17184F311883A
:1044CC00BFF36F8F10BD00BFC0010020024A03492B
:1044DC00034800F076B800BFC15300008E530000B3
:1044EC009B5300002DE9F84F002481468846164660
:1044FC001D46A2460027444504DB3760C5F800A0E2
:10450C00BDE8F88F59F824B039465846FCF7AAF89C
:10451C0008B1A2465F460134EDE7F8B507460D46F3
:10452C0000260024AE4207DB2846FBF78BFE014633
:10453C002046FBF78FFFF8BD57F826102046FBF7F7
:10454C00CDFD01360446EDE72DE9F04180460E46DF
:10455C00FFF7E3FF002507460024B54202DB2046A7
:10456C00BDE8F08158F825003946FBF7B5FD01464A
:10457C00FBF7BCFE01462046FBF7B0FD01350446B7
:10458C00EBE7034658B1426802F00302012A03D05C
:10459C00032A04D1026812B10020986070476FF0B2
:1045AC00150070474268816002F00302032A4FF045
:1045BC00000203460CBF006810465A60704700208A
:1045CC0070470FB407B504A951F8040B0191FCF71F
:1045DC00CDFA03B05DF804EB04B07047038B13F015
:1045EC00070305D10368002B0CBF00200320704784
:1045FC00022B05D1438B002B14BF002004207047E5
:10460C00012B05D10368002B0CBF0020052070473F
:10461C00002070472DE9F0410D4607461946281D2C
:10462C0090461E46FFF7BEFF044638B1334642465D
:10463C0029463846A446BDE8F0416047BDE8F08104
:10464C0010B44FF02004EFF3118284F31288BFF3FF
:10465C006F8F416110BC0121FCF796BA10B50C4666
:10466C0040B139B1081DFFF78CFF28B9A36833F0AE
:10467C00030301D06FF0150010BD38B50C4605468C
:10468C0058B151B10B6843B14B6833B11C220021B6
:10469C0000F0ECF82C61002038BD6FF01500FBE742
:1046AC0070B504460E46FFF7D9FF051E31DB4FF0FF
:1046BC002003EFF3118183F31288BFF36F8F638BA9
:1046CC00208B4FF6FF75AB4200F007022ED0022A6A
:1046DC000ED1013363831546012381F31188BFF397
:1046EC006F8FB3B1002331462046FFF793FF10E0E4
:1046FC00830701D0062A0ED100233360636893B977
:10470C00C4E90066154662B90A4620460221FCF748
:10471C003BFA284670BD052A0CBF6FF085056FF07B
:10472C0004050023D9E71E606660EBE76FF00A050D
:10473C00F7E7044608B5084611461A46A047FFF7A6
:10474C000BFDFDF7B5FA2DE9F84F9A46D3786F2B90
:10475C0080460F461546A3F1410B29D024D8582B7F
:10476C0014BF0A261026DDF8289032460023404656
:10477C003946FBF7A7FF092AD4B21ED83034B0450E
:10478C00E4B277F1000309F8014D01D3D14511D8FA
:10479C002B789B0605D5082E15D1AB7843F0080372
:1047AC00AB704846BDE8F88F03F0F703702BD7E7E2
:1047BC000826D8E780460F46D7E7BBF1190F94BF00
:1047CC0037345734DBE7102EEBD1AB7843F01003C2
:1047DC00E6E72DE9F0410746884615461E46144685
:1047EC00B442A4EB050002D33EB923782BB114F8E4
:1047FC00010B4146B8470028F2DABDE8F08170475A
:10480C0000F0BBBA0146006800F0B7BA00210120E5
:10481C00FFF7F6BF08B5FCF7E7FFBDE80840FDF76A
:10482C00BFB80139034611F8012F0AB91A70704745
:10483C0003F8012BF7E7034600201A5C02B9704716
:10484C000130FAE7034600201A5C0AB1884200D115
:10485C0070470130F8E710B5431E0A44914200D16D
:10486C0010BD11F8014B03F8014FF7E7C9B2024430
:10487C000346934200D1704703F8011BF9E74FF050
:10488C00FF307047062808D14FF080430122C3F84F
:10489C000025BFF34F8F20BFFDE77047002383F344
:1048AC001188BFF36F8F70470369C9B20C2201FBEB
:1048BC000233186C00F0070070474FF02003EFF341
:1048CC00118283F31288BFF36F8F036803F0C00368
:1048DC0043F00203036082F31188BFF36F8F7047BC
:1048EC00034670B50069C9B24FF02004EFF311868E
:1048FC0084F31288BFF36F8F0C2505FB0104246C25
:10490C0014F0C00401D0A24210D105FB0100012219
:10491C000264002086F31188BFF36F8F28B95B689F
:10492C0003EBC1014B689847002070BD4FF0FF307E
:10493C00F0E78022FFF7D4BFF8B5069F046905465F
:10494C00C9B24FF02000EFF3118C80F31288BFF343
:10495C006F8F0C2606FB0146306C00F0070EBEF183
:10496C00010F11D1376400268CF31188BFF36F8FC0
:10497C0046B90C2000FB0144C4E90E236B6853F8C4
:10498C00313098473046F8BD00F0C000874214BF64
:10499C004FF0FF366FF07706E6E713B580240094EE
:1049AC00FFF7CAFF02B010BD006910B4CBB21C24D3
:1049BC0003FB0400002110BC1047002000F0BBB921
:1049CC001046FFF7D7B843685B68D3F810350B6017
:1049DC000020704743685B6802EA010021EA02018B
:1049EC00C3F80805C3F80C150020704743685B68D2
:1049FC000020C3F80815704743685B680020C3F8B3
:104A0C000C15704743685A68D2F8043521EA030044
:104A1C000B40C2F80805C2F80C350020704703693A
:104A2C00586830B558B10024814212D108689D688D
:104A3C0054B98D42586000D19860002008606AB962
:104A4C00002030BD2846EFE78D42206008BF9C60F7
:104A5C00F3E705680446002DF4D13AB198685A681A
:104A6C000A6059600028EBD19960EAE76FF01500F5
:104A7C00E7E702690B46D2E9010183E80300002055
:104A8C00704743681B68D3F88004C3F880047047F0
:104A9C00436802691B68D3F8100150B152690020B9
:104AAC0012780A70C3F81001D3F8102101221A6091
:104ABC0070474FF0FF30704702680346D2F8580138
:104ACC0040B95B689B0706D4D2F82001003818BFA8
:104ADC00012070470120704742681368D3F8041313
:104AEC00C90518D5D3F82011A9B14FF02000EFF368
:104AFC00118180F31288BFF36F8FD3F8200130B18E
:104B0C000020C3F82001D3F820010120D86081F3E4
:104B1C001188BFF36F8F5268D20615D54FF0200164
:104B2C00EFF3118281F31288BFF36F8FD3F8581112
:104B3C0011B10021C3F800154FF48001C3F808131C
:104B4C0082F31188BFF36F8F7047704708B5FDF77C
:104B5C00D3FE08BD30B543681360037A03F10053EC
:104B6C00013BDB00456814681D44AC4202D96FF070
:104B7C00010030BD65798D4202D008341460F1E734
:104B8C000020F6E700F01F03012098404FF0A043EF
:104B9C0011B9C3F80C057047C3F80805704730B558
:104BAC0000F48054002C08BF15464FEA0323C0F3D1
:104BBC00811243EA820218BF002100F01F0418BFC3
:104BCC0001250A4304F5E0744FF0A04342EA450284
:104BDC0043F8242030BD2DE9F8431646054600EB7A
:104BEC00810901274FF0A0484D4502D10020BDE8B6
:104BFC00F8832C68230CC4F30322192B76D8DFE836
:104C0C0003F00D1B23282D4028757575754C5575B3
:104C1C0075757575757575755A666B7004F03F040E
:104C2C00C6F80C452B6803F01F0307FA03F3C8F80A
:104C3C0008351346012205E004F03F04C6F814457C
:104C4C0013460022114617E004F03F04C6F808454D
:104C5C00E8E704F03F04C6F81045F1E704F03F0420
:104C6C00C6F808452B6803F01F0307FA03F3C8F8CE
:104C7C000C350121134600222868FFF790FF0435FC
:104C8C00B2E704F03F04C6F80C452B6803F01F0391
:104C9C0007FA03F3C8F80C35CBE704F03F04C6F869
:104CAC000845002A14BF13460623CAE704F03F0444
:104CBC00C6F80C45F5E704F03F04C6F860452868D3
:104CCC00C0F3403100F03F00FFF75CFFB1E704F0A8
:104CDC003F04C6F86445F2E704F03F04C6F86845A3
:104CEC00EDE704F03F04C6F86C45E8E76FF085008B
:104CFC007DE708B50020FDF7D5F84FF08053D3F8C9
:104D0C003001421C04BF4FF0704393F8E00F831F37
:104D1C00584258417047004700F041B908B500208F
:104D2C00FCF73CFD08B9FCF729FD4FF0804300224D
:104D3C00C3F8182508BDFEF73FB900F01F0080002E
:104D4C0000F1A040D0F8003723F4403343EA01438C
:104D5C00C0F800377047FEF745BD08B5FFF7FBFFFD
:104D6C00002008BD704738B1C3681888C0F308002C
:104D7C00A0F58073584258417047F8B505460E4669
:104D8C004FF02003EFF3118783F31288BFF36F8F7B
:104D9C00FFF7E2F9314604462846FFF7AAFF87F3EE
:104DAC001188BFF36F8F2046BDE8F840FCF780BF39
:104DBC00FFF75CBDFFF74FBDEFF30580003818BF60
:104DCC000120704708B5FCF7B5FBBDE80840FFF7BC
:104DDC00BCBED0E9003213605A600023C0E9003336
:104DEC00704708B5FFF7F5FF437B23F002034373CD
:104DFC000023836008BD034620B9EFF305820AB98E
:104E0C00FCF712BD83F31188BFF36F8F70474FF01F
:104E1C002003EFF3118083F31288BFF36F8FFFF73A
:104E2C00EABF03460068834208BF0020704710B5F4
:104E3C004FF02003EFF3118483F31288BFF36F8FCD
:104E4C00FEF7E8FF84F31188BFF36F8F10BD10B528
:104E5C0001464FF02003EFF3118483F31288BFF364
:104E6C006F8F10F80B3C13F0280F0DD151F8103C3C
:104E7C0018380BB1FFF7B5FF11F80B3C23F01403F6
:104E8C0001F80B3CFEF7C6FF84F31188BFF36F8F5C
:104E9C0010BD38B504460D46FFF710F8637B43F0A0
:104EAC000203637395B12B68A5609D4215D0A3B125
:104EBC0094F90E1093F90E20914208D0521A002A40
:104ECC0005DD5A68C4E9003214605C6038BD6A685C
:104EDC00934202D01B68002BECD16B68C4E90053E1
:104EEC001C606C60F2E738B54FF02003EFF31185CE
:104EFC0083F31288BFF36F8FFFF793FF044620B143
:104F0C00FFF76FFF183000F006F885F31188BFF338
:104F1C006F8F204638BD10B54FF02002EFF311848F
:104F2C0082F31288BFF36F8F03683BB1FFF7C4F9AC
:104F3C00002084F31188BFF36F8F10BD6FF0150044
:104F4C00F7E710B54FF02003EFF3118483F31288C9
:104F5C00BFF36F8FFFF78AF984F31188BFF36F8F5C
:104F6C0010BD70B504460D464FF02003EFF31186CB
:104F7C0083F31288BFF36F8FFFF778F9012805DDF3
:104F8C00A04203DB29462046FDF732FE86F311884A
:104F9C00BFF36F8F70BD08B5FFF77EFA08BD08B17F
:084FAC00FCF796BF7047704747
:084FB40050B7FF7F010000006F
:104FBC00811E000000000000651F0000F44F00007F
:104FCC00674D000000000000152300000C5000008D
:104FDC001D26000024500000F521000000000000F8
:084FEC00912A00000000000002
:104FF4003653000010520000F451000094000020C9
:105004000802002080510000455300005052000067
:105014002C52000098000020640200207A51000005
:105024005353000098520000845200009C0000205A
:085034000C0000207451000083
:10503C003D310000234D0000000000001948000025
:10504C0024500000E54A0000000000001948000050
:10505C000000000019480000000000001948000082
:10506C0095360000234D0000000000001948000098
:10507C000000000019480000000000001948000062
:10508C000000000019480000000000001948000052
:10509C000000000019480000000000001948000042
:1050AC000000000019480000000000001948000032
:1050BC00000000001948000000000000112B000047
:1050CC000000000019480000000000001948000012
:1050DC000000000019480000000000001948000002
:1050EC0000000000194800000000000019480000F2
:1050FC0000000000194800000000000019480000E2
:10510C0000000000194800000000000019480000D1
:10511C0000000000194800000000000019480000C1
:10512C0000000000194800000000000019480000B1
:10513C0000000000194800000000000019480000A1
:10514C000000000019480000000000001948000091
:10515C000000000019480000000000001948000081
:08516C000000000019480000DA
:1051740000800080FF7F00800080FF7F008000802F
:02518400FF7FAB
:0A518600FFFFFFFFFFFFFFFFFFFF29
:105190000040244400801F4400401F440040264437
:1051A00000001E4400401F4400C019440040184441
:1051B00000C01644000016440000154400C0184406
:1051C0000338FDD8704700000000002000000000F8
:1051D00000000B0602000000DC510000000000008F
:1051E0002753000024000207000000202F53000076
:1051F0001E000B11712000003F490000A74900006C
:1052000000000000B54800000000000000000000A1
:105210000D200000C9200000A5200000C7490000A3
:10522000211F0000F11E000000000000812300008B
:10523000D3490000E1490000F9490000054A000097
:10524000114A00004D2200002B4A0000000000001F
:10525000FFFFFFFF00000050000000000000000002
:10526000002000407C520000010000000600000009
:105270000800010005000200070003006C52000056
:10528000040000009D4A0000192700008F4A00001A
:10529000C52400007F4A00000020004002000000FA
:1052A0000000000060520000BC4F0000EC4F000006
:1052B000F44F0000F44F0000F44F0000F5FFFFFF33
:1052C0005365676D656E746174696F6E20696E6495
:1052D00065783A2025640A005365676D656E7461D0
:1052E00074696F6E20696E646578204756463A206F
:1052F00025642E253034640A0053656C6563746937
:105300006F6E20616C676F726974686D2074696D6F
:10531000653A2025752075730A00456E64200A0DD4
:1053200000286E696C2900464C4153485F30005399
:1053300052414D5F3000636C6F636B4034303030EE
:1053400030303030006770696F4035303030303089
:10535000303000756172744034303030323030306B
:105360000000000101010000000101000000000137
:1053700001000000005465726D696E616C0052544A
:105380005400534547474552006D61696E007633BE
:105390002E312E39392D6E637331002A2A2A20428C
:1053A0006F6F74696E67205A6570687972204F5309
:1053B000206275696C64202573202573202A2A2AAF
:0453C0000A000000DF
:1053C400CB450000FFFFFFFF8B48000000000000FA
:1053D40000C2010000010300000000006603002079
:1053E40067030020000000000090D00300000000CC
:1053F40000000000000000000000000000000000A9
:105404000000000000000000000000000000000098
:105414000000000000000000000000000000000088
:105424000000000000000000000000000000000078
:10543400000000000000000000000000FF00000069
:105444000000000000000000FFFF0F008C0000209F
:045454008C000020A8
:0C54580000000000000000000000000048
:0400000300001BE1FD
:00000001FF
